:060000000A128A110E280D
:10000800FE00030EF1000408F2000A08F3000A12C9
:100018008A1151280A128A11112883132730FD00EA
:100028000030FE00C230FF00203084000A128A111E
:10003800B3200A128A11F701F80183010A128A1102
:10004800782883160317880189018316031386010C
:10005800831203138601831603130F088F39403860
:100068008F000F14181218158316031787151930E7
:100078008316031399009A01831203139817181310
:100088008316031398168312031318168316031383
:1000980018138B170B178C160800831203138C1E6A
:1000A800562857286F281A08F0007708203E840041
:1000B8007008831380007708203E840000088600BB
:1000C8000130F0007008F70705307702031C6D282F
:1000D8006E286F28F70173088A0072088400710E71
:1000E8008300FE0E7E0E09000A128A1125200A12CC
:1000F8008A11F90183120313240878060319852845
:1001080086287D2800300A128A1196200A128A1140
:10011800831203132408F6007608F8007D280A12D3
:100128008A110E28F500A828831203130C1E9D2897
:100138009E28A8287508203E84008313000899008B
:100148000130F4007408F50707307502031CAD2868
:10015800AE28982808007E088A007F0882000A12C4
:100168008A11AF200A128A118000840A04087D06C9
:1001780003190034FF0A0319FE0AB3282034203477
:0A0188002034203420340D340A34F2
:08400000FF3FFF3FFF3FFF3FC0
:04400E00D420FF3F7C
:00000001FF
