:060000000A128A110E280D
:10000800FE00030EF2000408F3000A08F4000A12C6
:100018008A112E280A128A11112883134A30FD00EA
:100028000130FE002230FF00203084000A128A11BD
:1000380073210A128A110A128A1182210A128A115C
:10004800F900CE01F501F601F701F80183010A1262
:100058008A11DA28831203130C1F33283428432803
:100068001F0CF000700C0F39003A031D3C283D2886
:1000780041281E08F0007008F8000C137C288C1E1C
:10008800462847287C286C28760803194C284D28D0
:100098005428F501F50A1A08F0007008C6007C28F3
:1000A8007808F0007008C600F701F70A7C2876087F
:1000B80003195F28602861284D28F601F60A7C2874
:1000C800F901F701760803196A286B287C284D285E
:1000D8001A08F000F1017108003A0319742864281D
:1000E8007008313A03194828033A03195B28642831
:1000F80074088A0073088400720E8300FE0E7E0E58
:10010800090001308316031788008901013083161E
:1001180003138500831203138501831603138601D5
:10012800831203138601831603130F088F3940388F
:100138008F000F14831203131F083F3940389F00A4
:10014800831603131F129F12C330831203139F05D4
:10015800831603139F13831203131F140230831291
:100168000313CA00CA0BB62800008316031318121B
:10017800181583160317871519308316031399006A
:100188009A018312031398171813831603139816EA
:100198008312031318168316031318138B170B17E0
:1001A8008C160C17831203130C1308000A128A11F9
:1001B80085200A128A11831203139F18E428E52860
:1001C800E6289F1479080319EA28EB28F828333021
:1001D8000A128A114C210A128A1120300A128A1135
:1001E8004C210A128A11F90177080319FC28FD2805
:1001F800192944300A128A114C210A128A11F7016E
:10020800F901F90A1929750803190B290C29192963
:10021800831203131A08860044300A128A114C21EB
:100228000A128A11F501F60104297608031D1D2911
:100238001E290729DF280A128A110E2832342E3483
:10024800203445344E345634493441345234203401
:100258004134533443344934493420340D340A3456
:1002680000340D340A3431342E3420344C344534BF
:1002780045345234203450344F34543420340D34FF
:100288000A3400340D340A3440340D340A3400344E
:1002980083120313CD00CB01CC0163290C1E552911
:1002A800562963294B084D07CA004A0884000008EC
:1002B80099000130CB070318CC0A0030CC074B0853
:1002C8004D07CA004A08840083130008031D6D29DE
:1002D8006E29522908007E088A007F0882000A12C7
:1002E8008A116F210A128A118000840A04087D0687
:0E02F80003190034FF0A0319FE0A73290134AA
:08400000FF3FFF3FFF3FFF3FC0
:04400E00D420FF3F7C
:00000001FF
