:060000000A128A110E280D
:10000800FE00030EF1000408F2000A08F3000A12C9
:100018008A1153280A128A11112883133430FD00DB
:100028000030FE00BB30FF00203084000A128A1125
:10003800D3200A128A11F501F601F701F8018301AC
:100048000A128A119E2883160317880189018316CC
:1000580003138601831203138601831603130F0803
:100068008F3940388F000F1418121815831603178C
:10007800871519308316031399009A018312031305
:100088009817181383160313981683120313181658
:100098008316031318138B170B178C16080083127B
:1000A80003138C1E582859287228F7011A08F000E3
:1000B8007508203E84007008831380007508203E70
:1000C8008400000886000130F0007008F50705304C
:1000D8007502031C702871287228F50173088A00BC
:1000E80072088400710E8300FE0E7E0E09008312D2
:1000F8000313B400B501B60192280C1E8428852884
:10010800922835083407F400740884000008990020
:100118000130B5070318B60A0030B60735083407AA
:10012800F4007408840083130008031D9C289D288C
:10013800812808000A128A1127200A128A1102301F
:1001480083120313B9004530B800A930B700B70BC4
:10015800AB28B80BAB28B90BAB2827300A128A1189
:100168007B200A128A11A3280A128A110E28203429
:1001780020342034203420340D340A3448346F3489
:100188006C34613420346D3475346E3464346F34B7
:1001980020340A3400347E088A007F0882000A125C
:1001A8008A11CF200A128A118000840A04087D0669
:0C01B80003190034FF0A0319FE0AD328C3
:08400000FF3FFF3FFF3FFF3FC0
:04400E00D420FF3F7C
:00000001FF
