:060000000A128A110C280F
:10000800FE00030EF0000A08F1000A128A117B288C
:100018000A128A110F2883132930FD000030FE00D0
:100028007230FF00203084000A128A1163200A12FD
:100038008A11F401F50183010A128A1146288316F0
:10004800031788018901831603138601831203139A
:100058008601831603130F088F3940388F000F1459
:1000680018121815831603178715193083160313EA
:1000780099009A0183120313981718138316031310
:10008800981608000A128A1123200A128A11A3302E
:10009800F3005530F200F20B4F28F30B4F28831270
:1000A80003130C1E582859284B284A3099004B280E
:1000B8000A128A110C287E088A007F0882000A1218
:1000C8008A115F200A128A118000840A04087D06BA
:1000D80003190034FF0A0319FE0A63284434613403
:1000E80074346F343A34203420340D340A347108AF
:0C00F8008A00700E8300FE0E7E0E0900D0
:08400000FF3FFF3FFF3FFF3FC0
:04400E00D420FF3F7C
:00000001FF
