:060000000A128A110C280F
:10000800FE00030EF0000A08F1000A128A117B288C
:100018000A128A110F2883132930FD000030FE00D0
:100028008A30FF00203084000A128A116C200A12DC
:100038008A11F401F50183010A128A114F288316E7
:10004800031788018901831603138601831203139A
:100058008601831603130F088F3940388F000F1459
:1000680018121815831603178715193083160313EA
:1000780099009A0183120313981718138316031310
:1000880098168312031318168316031318138B1765
:100098000B178C1608000A128A1123200A128A11DB
:1000A800A330F3005530F200F20B5828F30B582810
:1000B800831203130C1E6128622854284A309900C1
:1000C80054280A128A110C287E088A007F088200A8
:1000D8000A128A1168200A128A118000840A040808
:1000E8007D0603190034FF0A0319FE0A6C288312DF
:1000F80003138C1E8028812883281A08860071081B
:100108008A00700E8300FE0E7E0E090044346134AE
:0E01180074346F343A34203420340D340A34F9
:08400000FF3FFF3FFF3FFF3FC0
:04400E00D420FF3F7C
:00000001FF
